:100000000C9411010C9486170C945F170C94AD1787
:100010000C94AD170C94AD170C9439010C94390164
:100020000C9439010C9439010C9439010C94390168
:100030000C9439010C9439010C9439010C94390158
:100040000C9415170C9439010C941D160C94F7158B
:100050000C9439010C9439010C9439010C94390138
:100060000C9439010C9439017C119611AB11C61115
:10007000D1110F12161220122B123A123A123A1202
:100080003A123A123A123A123A123A123A123A1210
:100090003A123A123A123A123A123A123A123A1200
:1000A0003A123A123A123A127C1191119611AB118E
:1000B000C611D111EC11F711021200407A10F35A57
:1000C00000A0724E18090010A5D4E80000E8764898
:1000D000170000E40B54020000CA9A3B000000E144
:1000E000F505000080969800000040420F000000D7
:1000F000A08601000000102700000000E8030000B7
:1001000000006400000000000A0000000000010080
:10011000000000002C76D888DC674F0823DFC1DFA1
:10012000AE59E1B1B796E5E3E453C63AE6519976A4
:1001300096E8E6C28426EB898C9B62ED407C6FFCDE
:10014000EFBC9C9F40F2BAA56FA5F490055A2AF720
:100150005C936B6CF9676DC11BFCE0E40D47FEF529
:1001600020E6B500D0ED902E030094357705008091
:10017000841E080000204E0A000000C80C333333F0
:10018000330F986E12831141EF8D2114893BE65590
:1001900016CFFEE6DB18D1844B381BF77C1D901D73
:1001A000A4BBE424203284725E228100C9F124ECD5
:1001B000A1E53D277C3C3E5E2B3D3F2F5B5D3B2C0C
:1001C0002A225C0000000000240027002A00000012
:1001D0000008000201000003040700000000000006
:1001E000000000000000250028002B000000000097
:1001F0002300260029000404040404040404020269
:100200000202020203030303030301020408102095
:100210004080010204081020010204081020A920D7
:10022000471A11241FBECFEFD8E0DEBFCDBF26E0B6
:10023000A8E3B2E001C01D92A233B207E1F712E0D9
:10024000A0E0B1E0E8E8F4E502C005900D92A83323
:10025000B107D9F711E0C0E1D1E004C02197FE0158
:100260000E94ED27CF30D107C9F70E94511A0C9494
:10027000372A0C940000DC015996ED91FC915A97B5
:100280003097B9F083899489A589B68942855385C9
:1002900064857585841B950BA60BB70B811520E82B
:1002A0009207A105B10538F08FEF9FE7A0E0B0E01D
:1002B000089580E090E00895CF93DF931F92CDB72B
:1002C000DEB76983DC01ED91FC910280F381E02DC2
:1002D00041E050E0BE016F5F7F4F09950F90DF91C5
:1002E000CF910895089580E090E008953F924F9255
:1002F0005F926F927F928F929F92AF92BF92CF92B6
:10030000DF92EF92FF920F931F93CF93DF93CDB7BE
:10031000DEB72C970FB6F894DEBF0FBECDBF5C01E1
:10032000DC015B968D909C905C971696CD90DD904D
:10033000ED90FC901997C114D104E104F10439F057
:10034000BFEFCB1ADB0AEB0AFB0A312C07C0F40122
:10035000C080D180E280F38033243394F40181851E
:100360009285A385B4859C01AD012F5F3F4F4F4F10
:100370005F4F29873A874B875C87260137011D82AB
:100380001E821F821886F40181859285A385B4851B
:100390002D813E814F815885281739074A075B0711
:1003A00008F063C089859A85AB85BC858C159D0551
:1003B000AE05BF0550F482E0C82ED12CE12CF12C03
:1003C00092E0492E512C612C712C9E012F5F3F4FE2
:1003D000B701A601C4010E94DD18882309F445C0B5
:1003E00089819A81AB81BC81892B8A2B8B2B41F02F
:1003F000260137019FEF491A590A690A790A05C08F
:10040000C414D504E604F70491F02D813E814F8198
:1004100058852F5F3F4F4F4F5F4F2D833E834F8354
:1004200058873FEFC31AD30AE30AF30AACCF0FEFA2
:100430001FEF2FEF3FE0B301A201C4010E943D185E
:10044000882399F0D50116964D915D916D917C911F
:100450001997411551056105710549F09301820114
:10046000C4010E943D18811102C080E02AC0D5015C
:1004700016964D925D926D927C921997332051F0B1
:10048000D301C2010196A11DB11DF40180839183A6
:10049000A283B383F5018789908DA18DB28D892BBD
:1004A0008A2B8B2B69F4D50157964D925D926D92F4
:1004B0007C925A9714968C911497806814968C931A
:1004C00081E02C960FB6F894DEBF0FBECDBFDF9152
:1004D000CF911F910F91FF90EF90DF90CF90BF9041
:1004E000AF909F908F907F906F905F904F903F90D4
:1004F000089567E871E083E694E00E94C315809157
:100500003E0290913F02A0914002B09141020196BB
:10051000A11DB11D80933E0290933F02A093400223
:10052000B093410208954F925F926F927F92AF9283
:10053000BF92CF92DF92EF92FF920F931F93CF93D0
:10054000DF9300D000D0CDB7DEB78C0149835A834A
:100550006B837C835901C12CD12C7601412C82E024
:10056000582E612C712C49815A816B817C819E01AE
:100570002F5F3F4FC8010E94DD18882351F1D3013E
:10058000C201F801058404C0880F991FAA1FBB1F70
:100590000A94D2F7C80ED91EEA1EFB1E49815A8161
:1005A0006B817C818789803129F088EF9FEFAFEFE5
:1005B000BFE004C088EF9FEFA0E0B0E04817590704
:1005C0006A077B0780F2F501C082D182E282F38262
:1005D00081E00F900F900F900F90DF91CF911F91BE
:1005E0000F91FF90EF90DF90CF90BF90AF907F90F2
:1005F0006F905F904F9008958F929F92AF92BF92AD
:10060000CF92DF92EF92FF920F931F93CF93DF93DE
:10061000EC018D81811102C080E077C00B891C89BB
:100620002D893E890417150726073707A8F36A01A5
:100630007B01823029F4CA86DB86EC86FD860DC0FC
:10064000C114D104E104F10451F41E821F82188602
:1006500019861A861B861C861D8681E056C08A84F0
:100660009B84AC84BD84EB8DFC8D258530E0275FB9
:100670003F4FB501A4014150510961097109022E92
:1006800004C076956795579547950A94D2F7D70198
:10069000C6010197A109B10904C0B695A795979520
:1006A00087952A95D2F784179507A607B70720F0F4
:1006B00089288A288B2849F44F89588D698D7A8D2D
:1006C0004E835F836887798704C0841B950BA60BD4
:1006D000B70B4C015D018E010A5F1F4F811491041D
:1006E000A104B10409F4A7CF4E815F8168857985A3
:1006F00098018B8D9C8D0E94DD1891E0891A9108DC
:10070000A108B1088111EACF87CFDF91CF911F9166
:100710000F91FF90EF90DF90CF90BF90AF909F90A0
:100720008F9008958FB7F894809139028FBF089504
:1007300061E0FC0184810E94781680913802811169
:100740001092380208958EBD00000DB407FEFDCF53
:100750008EB508958FEF0C94A3030F931F93CF933F
:10076000DF93EB010E9409178B010E94AA038F3FC0
:1007700049F00E940917601B710B6C177D07A8F3E5
:1007800080E001C081E0DF91CF911F910F9108952A
:10079000CF93DF93EC018E81882389F08F81988538
:1007A0009C012F5F3F4F38872F838230924018F48F
:1007B0000E94AA03F3CFCE010E9498031E82DF910C
:1007C000CF9108958CBD9DBD0895CF93DF93EC012B
:1007D00080913802811109C081E0809338028091B4
:1007E0000005909101050E94E20360E08C81DF9199
:1007F000CF910C947816CF92DF92FF920F931F93B4
:10080000CF93DF9300D000D0CDB7DEB76C01F62ECA
:1008100029833A834B835C830E94C803C6010E94EC
:10082000E5036CE271E0C6010E94AD038F2D806488
:100830000E94A30308E110E05C814B813A81298189
:10084000DA01C901002E04C0B695A7959795879542
:100850000A94D2F729833A834B835C830E94A303D3
:100860000850110929813A814B815C81083F8FEF43
:10087000180731F7FF2029F0E8E0FE1204C087E8EE
:1008800003C085E901C08FEF0E94A30310E00E941E
:10089000AA03F601828787FF04C01F3F11F01F5F84
:1008A000F6CF0F900F900F900F90DF91CF911F9187
:1008B0000F91FF90DF90CF900895AF92BF92CF92AB
:1008C000DF92EF92FF920F931F93CF93DF93EC0190
:1008D0006901C801820F931F8130924008F070C0F7
:1008E0008E81882371F088819981AA81BB81481704
:1008F00059076A077B0729F48F819885C816D9069E
:10090000B0F5488359836A837B838B85833039F0C4
:1009100089E0440F551F661F771F8A95D1F79A010A
:10092000AB0161E1CE010E94FB03882319F083E053
:100930008D8346C00E9409175B010E94AA038A8723
:100940008F3F49F40E9409176A197B096D32714083
:10095000A0F38FE003C08E3F31F08DE08D83CE0198
:100960000E9498032DC018861F8281E08E838F819C
:1009700098858C159D0540F40E94AA038F81988567
:10098000019698878F83F3CF6701E00EF11ECE1496
:10099000DF0431F00E94AA03F60181936F01F7CFC3
:1009A0008F819885080F191F18870F8389858823E1
:1009B00019F00115124048F0CE010E94C80305C08D
:1009C000CE010E94980380E001C081E0DF91CF91C9
:1009D0001F910F91FF90EF90DF90CF90BF90AF905D
:1009E0000895EF92FF920F931F93CF93DF93EC0143
:1009F0007901411551056105710511F482E13CC091
:100A00008B85833039F089E0440F551F661F771FAF
:100A10008A95D1F79A01AB0168E1CE010E94FB03F0
:100A2000882311F084E028C08EEF0E94A303870181
:100A30008EEFF81AF80181918F010E94A3030E1521
:100A40001F05C1F78FEF0E94A3038FEF0E94A3033E
:100A50000E94AA038A878F71853031F081E18D83EE
:100A6000CE010E94980309C068E572E0CE010E94A1
:100A7000AD03811107C085E18D83CE010E949803EB
:100A800080E013C020E030E0A9016DE0CE010E94BB
:100A9000FB03811104C00E94AA03882311F084E1A2
:100AA000EBCFCE010E94980381E0DF91CF911F919F
:100AB0000F91FF90EF9008958091E0058823A9F1B0
:100AC0004091040150910501609106017091070168
:100AD00021E632E080916104909162040E94F10469
:100AE000811102C080E008954091E1055091E20536
:100AF0006091E3057091E4054115510561057105AB
:100B000091F021E632E080916104909162040E94AC
:100B1000F104882339F31092E1051092E205109256
:100B2000E3051092E4051092E00581E008958F92AC
:100B30009F92AF92BF92EF92FF920F931F93CF932A
:100B40004B015C01C42F8091040190910501A0919B
:100B50000601B091070188159905AA05BB0501F1A9
:100B60000E945C05811102C080E020C081E6E82E71
:100B700082E0F82E00E012E020E030E0B501A401B0
:100B800080916104909162040E945D04882361F366
:100B90008092040190920501A0920601B092070193
:100BA0008091E005C82BC093E00581E0CF911F91B3
:100BB0000F91FF90EF90BF90AF909F908F9008950E
:100BC0002F923F924F925F926F927F928F929F925D
:100BD000AF92BF92CF92DF92EF92FF920F931F934B
:100BE000CF93DF9300D0CDB7DEB7FC01858188239A
:100BF00009F4D9C0848180FFD6C021E02A834389CB
:100C000054896589768982859385A485B585481739
:100C100059076A077B0709F41A826F013A81832F0B
:100C200090E0DE0111964D013F01B6E06B0E711CA4
:100C3000892B09F47DC0D6011A964D915D916D9175
:100C40007C911D975A01B1E0BB22F60125811A0162
:100C50002B0189E056944794379427948A95D1F7CD
:100C6000838D948D223061F4FC01828D938DA48D4F
:100C7000B58DBC01CD01620D731D841D951D45C050
:100C8000DC0114961C9111501221A114B104D1F46D
:100C9000111118C0452B462B472B51F4F6018789BB
:100CA000908DA18DB28D86839783A087B1870AC06E
:100CB000468157816085718593010E94DD188823E4
:100CC00009F471C0F601238D348D86819781A0854A
:100CD000B1850297A109B109AC01BD01F9010584F3
:100CE00004C0440F551F661F771F0A94D2F78685EC
:100CF0009785A089B189840F951FA61FB71FBC01D6
:100D0000CD01610F711D811D911DD60114962C918D
:100D100026FF14C0009104011091050120910601E5
:100D200030910701601771078207930751F506C0DC
:100D3000FA81FF23C1F1898190E037C040E00E9431
:100D40009705882381F1F501EF59FD4FD401CF01BB
:100D50000196E817F90719F021912D93FACFEFEFDB
:100D60008E1A9E0AF60182859385A485B585019623
:100D7000A11DB11D82879387A487B58780E090E08D
:100D800057CF740101E010E09501AB01BC018091E7
:100D90006104909162040E945D04882321F0BFEFFA
:100DA0008B1A9B0ADFCF8FEF9FEF0F900F90DF9191
:100DB000CF911F910F91FF90EF90DF90CF90BF9058
:100DC000AF909F908F907F906F905F904F903F90EB
:100DD0002F900895FC01818D928D009711F00C9455
:100DE000E0058FEF9FEF08950F931F93CF93DF934D
:100DF000FC01818D928D0097B9F0EF010E94E00512
:100E00008C010F3F8FEF180791F0898D9A8DFC01AF
:100E10004285538564857585415051096109710981
:100E20000E94FC02C80105C080E090E002C08FEF84
:100E30009FEFDF91CF911F910F910895CF93DF9393
:100E4000EC018D818823A1F18C8187FF2DC06E85F7
:100E50007F858889998941E00E949705882341F11F
:100E6000EA8980E2E89FF0011124DF01AF59BD4F0C
:100E70001097F1F08D81823050F44B895C896D8937
:100E80007E895C964D935D936D937C935F978F897C
:100E9000988DA98DBA8DEF59FD4F938F828FB58BA9
:100EA000A48B8C818F778C83DF91CF910C945C0520
:100EB00080E0DF91CF9108958F929F92AF92BF9281
:100EC000CF92DF92EF92FF920F931F93CF93DF9316
:100ED00000D000D0CDB7DEB77C0180E2689F600112
:100EE000112496012F593D4FD9011B969C91917168
:100EF00021F0842F827409F097C0142FF701628BC0
:100F00008091040190910501A0910601B091070123
:100F100086879787A08BB18BF601EF59FD4F4489E7
:100F2000558960E070E0BA0155274427D7015796EC
:100F30004D935D936D937C935A97828D938DA0E032
:100F4000B0E0482B592B6A2B7B2BD70157964D933A
:100F50005D936D937C935A97D9011B968C91887100
:100F600059F4848D958DA68DB78DF701838B948B65
:100F7000A58BB68B81E012C0803109F055C0970176
:100F80002D5E3F4FD7015B968D919C915C970E949F
:100F90009302882309F448C084E0F7018583812FF8
:100FA0008F70D70114968C931497F70116821782CD
:100FB000108611861A961D921D921D921C921D97E5
:100FC00016FF34C015968C91813071F511FF2CC03D
:100FD000F7014389548965897689452B462B472B30
:100FE00009F461C040E050E0BA01C7010E94FC0270
:100FF0008823D1F0F7018788908CA18CB28CC38CA8
:10100000D48C82E090E0A0E0B0E0F6018083918390
:10101000A283B3839E012F5F3F4FB501A401C60198
:101020000E94DD18811104C080E03DC081E03BC01A
:1010300000E010E09801B501A401C6010E943D182E
:10104000882391F389809A80AB80BC80D601579623
:101050008C91803129F088EF9FEFAFEFBFE004C0A3
:1010600088EF9FEFA0E0B0E088169906AA06BB06BD
:1010700088F2D70157961D921D921D921C925A9785
:10108000F701138A148A158A168A848180688483FA
:10109000C7010E941E07882339F240E050E0BA01E0
:1010A000C7010E94FC020F900F900F900F90DF91EC
:1010B000CF911F910F91FF90EF90DF90CF90BF9055
:1010C000AF909F908F9008954F925F926F927F9212
:1010D000AF92BF92CF92DF92EF92FF920F931F9346
:1010E000CF93DF93CDB7DEB72B970FB6F894DEBF63
:1010F0000FBECDBF7C01CE0101966C01FC0190E2D8
:101100008BE08C0D91938E13FDCFDA0130E047E038
:101110009D91992339F19E3219F0E4EBF1E00AC078
:101120004A3009F472C138E04AE0F2CF31968917AB
:1011300009F46BC184918111F9CF431708F465C19B
:101140008FED890F8E3508F060C181E0830FF601C5
:10115000E30FF11D3FE9390F3A3108F490529083C3
:10116000382FD6CF8981803209F44FC1B22E8B013E
:10117000DB015B968D919C915C97F701948F838F37
:1011800016961D921D921D921C921997FB011286B4
:10119000138614861586712CF80182859385A485A3
:1011A000B585438954896589768984179507A6078B
:1011B000B70708F061C025E0B695A7959795879584
:1011C0002A95D1F7F82FFF706F2ED80115968C91C4
:1011D000823008F41AC1C8010E94E00597FD15C1CC
:1011E000F80182859385A485B5854F96A11DB11D13
:1011F00082879387A487B587F0E26F9EC001112490
:10120000BC016F597D4F6115710509F4FEC0DB010A
:101210002C91222319F0253EC1F427C071100EC075
:10122000F701628A40910401509105016091060125
:101230007091070146875787608B718BFC01EF59CE
:10124000FD4F8081811113C015C04BE050E0C601F5
:101250000E940B2A892B09F09FCF8B2D807380333E
:1012600009F4D3C04B2D662DCCC07720C9F277246A
:10127000739492CF772473948B2D8271823109F00D
:10128000C4C07720D1F0D7011E966D917D918D91CC
:101290009C91519741E00E949705882309F4B5C0BD
:1012A000F7016289F0E26F9FB00111246F597D4F01
:1012B0006115710509F079C0A8C0D80115968C9107
:1012C000823009F4A2C0C8010E947601882309F483
:1012D0009CC0D8015B96ED91FC915C9716964D9061
:1012E0005D906D907C901997B2E04B1A510861089F
:1012F0007108058404C0440C551C661C771C0A94B4
:10130000D2F786859785A089B189480E591E6A1E35
:101310007B1EA480E1E04E1A510861087108AA20E2
:1013200009F10E945C05882309F46FC0E1E6F2E050
:10133000119224E0E136F207D9F7D301C2018A0DF8
:10134000911DA11DB11D8093040190930501A093EF
:101350000601B09307018091E00581608093E0056C
:10136000AA94DDCFD8015B96ED91FC915C9780E06B
:1013700092E0A0E0B0E0058404C0880F991FAA1F86
:10138000BB1F0A94D2F7F80143895489658976898D
:10139000840F951FA61FB71F838B948BA58BB68BCD
:1013A000D70152961C9261E672E080E2FB01119235
:1013B0008A95E9F78BE0F601DB0101900D928A95A1
:1013C000E1F781E298E2DB0151969C938E9350976E
:1013D00020E038E01F963C932E931E9753969C93E3
:1013E0008E93529759969C938E93589757963C9309
:1013F0002E9356970E945C05882339F04B2DF701F8
:101400006289C7010E945C0701C080E02B960FB67D
:10141000F894DEBF0FBECDBFDF91CF911F910F912A
:10142000FF90EF90DF90CF90BF90AF907F906F9044
:101430005F904F900895CF93DF93EC010E941E07B9
:10144000882311F01D8281E0DF91CF910895FC0186
:10145000818D928D009711F00C941E0708952F92A4
:101460003F924F925F926F927F928F929F92AF9234
:10147000BF92CF92DF92EF92FF920F931F93CF9381
:10148000DF9300D000D0CDB7DEB78C015B011A012D
:10149000DC0115968C9115978130C9F414968C91C6
:1014A00081FF15C082FF1BC0F801438954896589FB
:1014B000768982859385A485B58584179507A607C7
:1014C000B70769F0C8010E94FC02811108C081E0E1
:1014D00090E0F8019383828380E090E039C161015C
:1014E00083C0D8015B968D919C915C97FC0124810F
:1014F00021502A013B0139E0769467945794479430
:101500003A95D1F7722E74207A01F1E0FF2277200C
:1015100009F476C080E092E08E199F0946018C158F
:101520009D0508F44C01D8015B962D913C915C9788
:1015300016968D919D910D90BC91A02D0297A109B9
:10154000B109F901058404C0880F991FAA1FBB1FA8
:101550000A94D2F74685578560897189840F951F53
:10156000A61FB71F9C01AD01270D311D411D511D47
:1015700029013A01811432E0930609F088C0809174
:10158000040190910501A0910601B0910701841515
:101590009505A605B70559F48FEF9FEFDC01809301
:1015A000040190930501A0930601B09307019501F2
:1015B000B301A20180916104909162040E94F10440
:1015C000882309F484CF9EEFB91AC818D908F80106
:1015D00082859385A485B585880D991DA11DB11DB2
:1015E00082879387A487B587D8011A964D915D911C
:1015F0006D917C911D97C114D10409F072CF87C001
:10160000E114F10409F086CF16964D915D916D912C
:101610007C911997411551056105710559F457964B
:101620008D919D910D90BC91A02D0097A105B105C4
:1016300041F521C09E012F5F3F4F0E94DD18882396
:1016400009F44BCF89819A81AB81BC81F801238D4C
:10165000348DF9012789203129F048EF5FEF6FEFD2
:101660007FE004C048EF5FEF60E070E0841795070B
:10167000A607B70730F0C8010E94760181114ACF52
:1016800026CFF80186839783A087B18743CFE114E3
:10169000F10429F5D8011A964D915D916D917C91D7
:1016A0001D9753968D919D910D90BC91A02D48173B
:1016B00059076A077B0798F00E945C05882309F4A4
:1016C00006CF40920401509205016092060170928B
:1016D00007018091E00581608093E00508C041E04A
:1016E000C301B2010E949705882309F4F0CED50109
:1016F000F701EF59FD4FCF01880D991DE817F90744
:1017000019F02D912193FACFA80CB91C5ECF5396F6
:101710008D919D910D90BC91A02D84179507A607E2
:10172000B70740F4F801438B548B658B768B84812B
:1017300080688483D80114968C9183FD02C0C10116
:1017400007C0C8010E941E07882309F4C0CEF7CF46
:101750000F900F900F900F90DF91CF911F910F91ED
:10176000FF90EF90DF90CF90BF90AF909F908F90C1
:101770007F906F905F904F903F902F900895CF9300
:10178000DF931F92CDB7DEB7698341E050E0BE0121
:101790006F5F7F4F0E942F0A0F90DF91CF910895C6
:1017A000CF93DF93EC01898D9A8D009739F481E016
:1017B00090E09B838A8380E090E00BC0FC01138261
:1017C00012820E942F0AE98DFA8D22813381232B08
:1017D00071F7DF91CF910895EF92FF920F931F93CE
:1017E000CF93DF93EC017B018A011B821A8288EE82
:1017F00093E0A0E0B0E08C839D83AE83BF8383E160
:1018000091E0998388838DE190E00E940F289A8F60
:10181000898F009779F02DE1F701DC0101900D929D
:101820002A95E1F74CE050E0B801CE010C960E94F9
:10183000282A188EDF91CF911F910F91FF90EF9082
:1018400008950F931F93CF93DF93EC0160E070E056
:10185000CB01E99120ED2E0F2A30C0F4AAE0B0E0D0
:101860009B01AC010E94DF250E2FEE0F110B220B06
:10187000330BDC01CB01800F911FA21FB31FBC01F2
:10188000CD016053710981099109E3CFDF91CF91B7
:101890001F910F9108950F931F93CF93C1E08091F3
:1018A000A4058D3221F0C0E004EA15E002C005EA8B
:1018B00015E0C8010E94210C9B01AC01A4E6B0E038
:1018C0000E94DF25F801DF01219130ED320F3A301F
:1018D000D0F32E3269F511962C91119730ED320F1D
:1018E0003A3030F5022E000C330B205331094AE018
:1018F000429F8001439F100D1124012E000C220BEA
:10190000330B600F711F821F931F12960C9120EDF5
:10191000200F2A3068F4002E000C110B005311091F
:10192000012E000C220B330B600F711F821F931FBF
:10193000CC2339F090958095709561957F4F8F4FAE
:101940009F4FCF911F910F9108954F925F926F9289
:101950007F928F929F92AF92BF92CF92DF92EF923F
:10196000FF92CF93DF9384EA95E00E94210C2B0134
:101970003C0124E630E040E050E00E94CB279B0190
:10198000AC0160EA76E881E090E00E94A7276B0155
:101990007C01E4EAF5E0819190ED980F9A30D8F35C
:1019A0008E3219F5EF0180E1882E87E2982EA12C66
:1019B000B12CA99180ED8A0F8A30B8F40A2E000C60
:1019C000BB0BD097A50194010E94F327C60ED71E2A
:1019D000E81EF91EC501B4012AE030E040E050E005
:1019E0000E94CB2749015A01E4CFC701B6016D5FC0
:1019F0007F4F8F4F9F4F26E030E040E050E00E9445
:101A0000CB2769017A01C301B20124E630E040E04E
:101A100050E00E94CB2760E472E48FE090E00E94E7
:101A2000A7276C0D7D1D8E1D9F1DDF91CF91FF900F
:101A3000EF90DF90CF90BF90AF909F908F907F906E
:101A40006F905F904F9008950F931F93CF93DF9304
:101A50000BE415E061E0F80181810E94A816C3EC57
:101A6000D0E0CE010197F1F760E0F80180810E949B
:101A7000A816CE010197F1F760E0F80181810E947C
:101A8000A8162197F1F7DF91CF911F910F9108953B
:101A900061E080914C050E94A81683EC90E00197CC
:101AA000F1F70895EF92FF920F931F93CF93DF9377
:101AB000082F18E093ECE92EF12C61E080914B05A2
:101AC0000E94A816C7010197F1F700FF02C060E06D
:101AD00001C061E080914C050E94A816C3ECD0E0E3
:101AE000C7010197F1F760E080914B050E94A816AD
:101AF000C7010197F1F706951150F9F661E0809161
:101B00004B050E94A81660E080914C050E94A81623
:101B1000CE010197F1F760E080914B050E94A81675
:101B20002197F1F720914C0530E0F901E253FE4F87
:101B30008491F901E65FFD4FD491F901EA50FE4F1F
:101B4000C491CC23A1F081110E944F16EC2FF0E03C
:101B5000EE0FFF1FE451FE4FA591B491EC91ED23E0
:101B600091E080E009F490E0C92FD82F02C0C0E0D6
:101B7000D0E0209729F461E080914C050E94A816DE
:101B800003EC10E0C8010197F1F761E080914B058B
:101B90000E94A816C8010197F1F78C2F8170DF9180
:101BA000CF911F910F91FF90EF900895CF93DF9306
:101BB000BC0183E694E00E94C315EC0164EF71E080
:101BC00083E694E00E94C3158C0F9D1FDF91CF9197
:101BD0000895CF92DF92FF920F931F93CF93DF93DD
:101BE00000D0CDB7DEB7182F062F49839A830E9405
:101BF000480D80E40E94520D0E94240D0E94480D61
:101C00004981842F837080540E94520DF12EC12E81
:101C10009A81D92E8C2D8F19801730F4F60181917D
:101C20006F010E94520DF6CF0E94240D0E94480DB4
:101C300080914D058F7080580E94520D0F900F902B
:101C4000DF91CF911F910F91FF90DF90CF900C9477
:101C5000240DCF93DF93FC012581222311F080E036
:101C600049C0EC01809125058031C1F482E0858373
:101C7000178A108E118E128E80912605909127055D
:101C8000A0E0B0E025E0880F991FAA1FBB1F2A958E
:101C9000D1F7838B948BA58BB68B19C08032F9F664
:101CA00083E08583409128055091290560912A059C
:101CB00070912B05478B508F618F728F9F012D5E26
:101CC0003F4F8EE095E00E949302882341F28EE020
:101CD00095E09C8F8B8F81E08C831E821F821886FB
:101CE00019861A861B861C861D861E861F86188AE4
:101CF000198A1A8ADF91CF9108958F929F92AF929D
:101D0000BF92CF92DF92EF92FF92CF93DF93C82FD3
:101D100082E095E09093620480936104CC2369F1A2
:101D2000C53010F080E00DC140E060E070E0CB0114
:101D30000E9497058823B1F320E1C29FC0011124BE
:101D40008F5A9D4FFC01E254FE4F20812F7751F7AF
:101D50003C96408151816281738144365105610511
:101D6000710500F33497C080D180E280F380C11404
:101D7000D104E104F10421F4D5CFC12CD12C76019A
:101D800040E0C701B6010E949705882359F280916F
:101D90006C0290916D028115924021F6A091710222
:101DA000AA2309F4BFCF60916F0270917002611590
:101DB000710509F4B7CF20916E02222309F4B2CF46
:101DC000A09320052093120580E030E0E1E0F0E0F0
:101DD000C82FAF01082E02C0440F551F0A94E2F726
:101DE0002417350741F0982F8F5F983089F789E0E5
:101DF00080931B0597CF80931B052091770230912C
:101E000078022115310519F040E050E008C020911A
:101E1000850230918602409187025091880220937A
:101E2000130530931405409315055093160546018C
:101E30005701860E971EA11CB11C8092210590921D
:101E40002205A0922305B0922405E0917202F09140
:101E50007302F0932705E0932605B0E00E94DF258A
:101E6000860E971EA81EB91E8092280590922905FD
:101E7000A0922A05B0922B0585E0EE0FFF1F8A95F0
:101E8000E1F7E150FE4FEF2FFF27E6958E0E9F1EE4
:101E9000A11CB11C80921C0590921D05A0921E05EC
:101EA000B0921F0520917402309175022115310501
:101EB00021F0A90160E070E008C0409181025091DA
:101EC00082026091830270918402D701C601881951
:101ED0009909AA09BB09840F951FA61FB71F04C043
:101EE000B695A79597958795CA95D2F780931705CC
:101EF00090931805A0931905B0931A05853F2FE01C
:101F00009207A105B10510F48CE018C0853F9F4FE2
:101F1000A105B10510F480E111C080918D0290916E
:101F20008E02A0918F02B091900280932805909329
:101F30002905A0932A05B0932B0580E280932505FF
:101F400081E0DF91CF91FF90EF90DF90CF90BF9035
:101F5000AF909F908F9008958F929F92AF92BF9273
:101F6000CF92DF92EF92FF920E94E4164B015C0148
:101F700084EFC82EDD24D394E12CF12C0E94E416CA
:101F8000DC01CB0188199909AA09BB09883E934055
:101F9000A105B10558F021E0C21AD108E108F10805
:101FA00088EE880E83E0981EA11CB11CC114D104D8
:101FB000E104F10419F7FF90EF90DF90CF90BF900C
:101FC000AF909F908F9008951F93CF93DF93409190
:101FD000B7055091B8056091B9057091BA054F5F8A
:101FE0005F4F6F4F7F4F4093B7055093B805609395
:101FF000B9057093BA05843209F44BC2E091B50576
:10200000853234F48A3071F08D3009F050C20AC044
:102010008A3241F08C3209F04AC29091A205982789
:102020009093A205182FEF3008F024C2F0E0EC5591
:10203000FA4F10828091A305882309F428C12091CA
:10204000A4053FEB320F822F022E000C990B363085
:1020500010F4C79707C02156263018F48755910908
:1020600001C0C097282F2295207F3091A5054FEB06
:10207000430F832F032E000C990B463010F4C797A3
:1020800007C03156363018F48755910901C0C09702
:10209000820F9091A2058913F0C08091B605882324
:1020A00009F4E8C18091BB059091BC05019690931D
:1020B000BC058093BB058091960590919705A091F2
:1020C0009805B09199058093920590939305A093FC
:1020D0009405B093950580919E0590919F05A091E0
:1020E000A005B091A10580939A0590939B05A093BC
:1020F0009C05B0939D058091B305882309F464C0C5
:10210000813009F0B3C18091520590915305A0919F
:102110005405B091550580934E0590934F05A093BB
:102120005005B093510580915A0590915B05A0919F
:102130005C05B0915D058093560590935705A0937B
:102140005805B09359058091620590916305A0915F
:102150006405B091650580935E0590935F05A0933B
:102160006005B093610580916A0590916B05A0911F
:102170006C05B0916D058093660590936705A093FB
:102180006805B093690580917A0590917B05A091CF
:102190007C05B0917D058093760590937705A0939B
:1021A0007805B09379058091820590918305A0917F
:1021B0008405B091850580937E0590937F05A0935B
:1021C0008005B093810552C180917205909173058D
:1021D000A0917405B091750580936E0590936F057D
:1021E000A0937005B09371058091520590915305AD
:1021F000A0915405B091550580934E0590934F05DD
:10220000A0935005B09351058091620590916305AC
:10221000A0916405B091650580935E0590935F057C
:10222000A0936005B093610580916A0590916B055C
:10223000A0916C05B0916D0580936605909367053C
:10224000A0936805B09369058091900590919105E0
:1022500090938F0580938E0580918A0590918B05D0
:10226000A0918C05B0918D0580938605909387058C
:10227000A0938805B0938905F9C08091BD05909120
:10228000BE0501969093BE058093BD05F3C0909165
:10229000B405911119C0A4EAB5E0EFE1F2E09D01A7
:1022A000E90189919E01882309F416C1919189174A
:1022B000B9F3E5E2F2E08D91882309F4D9C0919158
:1022C0008917C9F382E009C1E091B305E23009F44E
:1022D000D1C08091A405882309F4CCC0D0E2ED9F41
:1022E000F0011124E92B3197E932F10508F0C2C061
:1022F000EC5CFF4F0C94ED270E944B0C6093520551
:102300007093530580935405909355050E940917C7
:10231000609396057093970580939805909399051F
:10232000A9C091E0813409F07DC07DC00E94A50C58
:1023300060936205709363058093640590936505CF
:102340000E94091760939E0570939F058093A005D6
:102350009093A1058FC0833509F08CC080916205F0
:1023600090916305A0916405B0916505B095A09525
:10237000909581959F4FAF4FBF4F8093620590938B
:102380006305A0936405B093650574C00E94A50C15
:1023900060936A0570936B0580936C0590936D054F
:1023A00069C0873509F066C080916A0590916B0518
:1023B000A0916C05B0916D05B095A0959095819513
:1023C0009F4FAF4FBF4F80936A0590936B05A093CB
:1023D0006C05B0936D054EC00E944B0C60937A055E
:1023E00070937B0580937C0590937D0543C00E948C
:1023F0004B0C6093820570938305809384059093C2
:10240000850538C084EA95E00E94210C60935A0546
:1024100070935B0580935C0590935D052BC091E004
:1024200081330CF490E09093B60524C084EA95E0E3
:102430000E942F22992790939105809390051AC0AE
:102440000E944B0C60938A0570938B0580938C05DA
:1024500090938D050FC00E944B0C60937205709392
:102460007305809374059093750504C081E003C0E3
:102470001092B30580E09091B4059F5F9093B405EE
:102480001092B50591E01A3209F090E09093A305FF
:1024900027C01092B5051092B4051092A20582E0F3
:1024A0008093B3051092A3051092B60513C0EE30C9
:1024B00040F491E09E0F9093B505F0E0EC55FA4F93
:1024C00080839091A305911105C09091A205892761
:1024D0008093A20580E004C081E08093B305CACF59
:1024E000DF91CF911F910895AF92BF92CF92DF926B
:1024F000EF92FF920F931F93CF93DF9300D000D002
:10250000CDB7DEB77C0189E3C82E81E0D82E9E01CD
:102510002F5F3F4F890144E0420FF601B290A29035
:102520006F01C701B5010E94B7276115710581F0E0
:10253000E62FEF70F0E0EF5DFE4F80816A9DF001C5
:102540006B9DF00D7A9DF00D1124EE1AFF0A01C06B
:102550008FE3F80181938F014E13DFCF40E064E0F9
:10256000C9010E94E90D0F900F900F900F90DF911D
:10257000CF911F910F91FF90EF90DF90CF90BF9080
:10258000AF9008958F929F92AF92BF920F931F9337
:10259000CF93DF93CDB7DEB7A1970FB6F894DEBF28
:1025A0000FBECDBF19A2423008F44AE08E010F5D84
:1025B0001F4F842E912CA12CB12CA50194010E94B7
:1025C000CB27E62FB901CA0101501109EA3014F4F2
:1025D000E05D01C0E95CD801EC93232B242B252B73
:1025E00061F7B80183E694E00E94C315A1960FB687
:1025F000F894DEBF0FBECDBFDF91CF911F910F9139
:10260000BF90AF909F908F900895CF92DF92EF92FE
:10261000FF920F931F93CF93DF936C017A018B018D
:10262000C0E0D0E0CE15DF0589F0D8016D918D01B5
:10263000D601ED91FC910190F081E02DC601099544
:10264000892B11F47E0102C02196ECCFC701DF91E6
:10265000CF911F910F91FF90EF90DF90CF90089551
:10266000FC01538D448D252F30E0842F90E0821B98
:10267000930B541710F0CF96089501970895FC011D
:10268000918D828D981761F0828DDF01A80FB11DA9
:102690005D968C91928D9F5F9F73928F90E00895CD
:1026A0008FEF9FEF0895FC01918D828D981731F087
:1026B000828DE80FF11D858D90E008958FEF9FEFDB
:1026C0000895FC01918D228D892F90E0805C9F4FB1
:1026D000821B91098F739927089583E694E00E94E5
:1026E000611321E0892B09F420E0822F0895FC0179
:1026F000848DDF01A80FB11DA35ABF4F2C91848D8B
:1027000090E001968F739927848FA689B7892C93BF
:10271000A089B1898C9180648C93938D848D98135A
:1027200006C00288F389E02D80818F7D8083089523
:10273000EF92FF920F931F93CF93DF93EC0181E011
:10274000888F9B8D8C8D981305C0E889F9898081CD
:1027500085FD24C0F62E0B8D10E00F5F1F4F0F7309
:102760001127E02E8C8DE8120CC00FB607FCFACFB3
:10277000E889F989808185FFF5CFCE010E94771322
:10278000F1CF8B8DFE01E80FF11DE35AFF4FF08270
:102790000B8FEA89FB898081806207C0EE89FF89FF
:1027A0006083E889F98980818064808381E090E09A
:1027B000DF91CF911F910F91FF90EF900895CF93EC
:1027C000DF93EC01888D8823C9F0EA89FB89808139
:1027D00085FD05C0A889B9898C9186FD0FC00FB60B
:1027E00007FCF5CF808185FFF2CFA889B9898C914C
:1027F00085FFEDCFCE010E947713E7CFDF91CF9118
:10280000089580E090E0892B29F00E946D138111DA
:102810000C9400000895089520913C0230913D02EF
:102820002817390771F490913A0280913B0298176A
:1028300041F0E0913A02F0E0EB51FA4F808190E0F4
:1028400008958FEF9FEF089508951F93CF93DF931F
:10285000DC015C962D913C915D972115310539F491
:1028600081E090E013969C938E9312973DC0519611
:10287000ED91FC91529750969C915097892F80959D
:102880001FB75E964C915E9741FB772770F941FD2B
:102890006095F8944081772311F0492B01C04823BB
:1028A0004083E9012197F1F748E0508160FF02C0C1
:1028B000592B01C058235083E9012197F1F7669500
:1028C000415099F7772321F090818923808303C0B9
:1028D0008081982B90831FBF5C968D919C915D9712
:1028E0000197F1F721E030E0C901DF91CF911F910D
:1028F000089520913C0230913D022817390771F468
:1029000080913B0220913A0290E0805C9F4F821BB5
:10291000910960E470E00E94B727089580E090E09C
:10292000089520913C0230913D0228173907B9F4EF
:1029300090913A0280913B02981789F0E0913A0217
:10294000F0E0EB51FA4F808120913A0230E02F5FA6
:102950003F4F2F73332720933A0290E008958FEF73
:102960009FEF08950E94062A0F931F93CF93DF9342
:10297000EC0188819981009729F02A813B812617F3
:10298000370788F48B016F5F7F4F0E943C290097C7
:1029900061F0998388831B830A832C813D81232BDB
:1029A00011F4FC01108281E001C080E0DF91CF9141
:1029B0001F910F910895EF92FF920F931F93CF9362
:1029C000DF93FC01248135816115710511F480E0EC
:1029D00019C041155105A9F07B01EC018A01020FD4
:1029E000131FB8010E94B414882389F32881398108
:1029F0008C819D81B701820F931F0E94212A1D8324
:102A00000C8381E0DF91CF911F910F91FF90EF90A8
:102A10000895CF93DF93EC0188819981009711F09D
:102A20000E94A428198218821D821C821B821A828D
:102A3000DF91CF910895CF93DF93EC01611571057C
:102A400061F0FB0101900020E9F73197AF01461BCF
:102A5000570B0E94DB14811103C0CE010E9409159F
:102A6000CE01DF91CF910895CF93DF93EC01FB016D
:102A700044815581608171810E94DB14811103C002
:102A8000CE010E940915CE01DF91CF910895EF92FA
:102A9000FF920F931F93CF93DF93EC01FB018617F7
:102AA0009707B9F0008111810115110539F0E48013
:102AB000F580B7010E94B414811104C0CE010E94B8
:102AC000091507C0FD82EC82B801888199810E94B6
:102AD000212ACE01DF91CF911F910F91FF90EF90AE
:102AE0000895FC01808191810C94A428CF92DF92FB
:102AF000EF92FF920F931F93CF93DF93CDB7DEB783
:102B0000A1970FB6F894DEBF0FBECDBF7C01CB01FD
:102B1000BA01F70111821082138212821582148287
:102B200042E0420F8E010F5F1F4F0E940F226C0187
:102B3000009771F0FC0101900020E9F731978F01B7
:102B4000081B190BB801C7010E94B414811104C0FD
:102B5000C7010E94091508C0F70115830483B60157
:102B6000808191810E94212AA1960FB6F894DEBF40
:102B70000FBECDBFDF91CF911F910F91FF90EF90CE
:102B8000DF90CF9008956115710579F0FB010190F8
:102B90000020E9F73197AF01461B570BDC01ED919F
:102BA000FC910280F381E02D099480E090E008958B
:102BB0000F931F93CF93DF93EC01E881F981DB0141
:102BC00014964D915C9115976D917C910280F381E3
:102BD000E02D09958C0164EF71E0CE010E94C315D0
:102BE000800F911FDF91CF911F910F9108951F9238
:102BF0000F920FB60F9211242F933F934F935F9331
:102C00006F937F938F939F93AF93BF93EF93FF93B4
:102C100083E694E00E947713FF91EF91BF91AF910B
:102C20009F918F917F916F915F914F913F912F91E4
:102C30000F900FBE0F901F9018951F920F920FB616
:102C40000F9211242F938F939F93EF93FF93E09113
:102C50007304F09174048081E0917904F0917A0416
:102C600082FD12C0908180917C048F5F8F732091D0
:102C70007D04821751F0E0917C04F0E0ED59FB4FA8
:102C8000958F80937C0401C08081FF91EF919F918B
:102C90008F912F910F900FBE0F901F90189583303A
:102CA00081F028F4813099F08230A1F008958730C6
:102CB000A9F08830B9F08430D1F4809180008F7D04
:102CC00003C0809180008F7780938000089584B541
:102CD0008F7702C084B58F7D84BD08958091B00048
:102CE0008F7703C08091B0008F7D8093B0000895EE
:102CF0001F93CF93DF93282F30E0F901E253FE4F6B
:102D00008491F901E65FFD4FD491F901EA50FE4F3D
:102D1000C491CC23C9F0162F81110E944F16EC2FBD
:102D2000F0E0EE0FFF1FEE51FE4FA591B4918FB76B
:102D3000F894111105C09C91ED2FE095E92302C094
:102D4000EC91ED2BEC938FBFDF91CF911F91089504
:102D5000CF93DF9390E0FC01E65FFD4F2491FC01EF
:102D6000EA50FE4F8491882361F190E0880F991F0B
:102D7000FC01EC53FE4FC591D491FC01EE51FE4F86
:102D8000A591B491611109C09FB7F89488812095ED
:102D900082238883EC912E230BC0623061F49FB7AD
:102DA000F8943881822F809583238883EC912E2B91
:102DB0002C939FBF06C08FB7F894E8812E2B2883F1
:102DC0008FBFDF91CF9108953FB7F89480912A0685
:102DD00090912B06A0912C06B0912D0626B5A89BAC
:102DE00005C02F3F19F00196A11DB11D3FBFBA2F9D
:102DF000A92F982F8827820F911DA11DB11DBC01FD
:102E0000CD0142E0660F771F881F991F4A95D1F7C1
:102E100008952FB7F8946091260670912706809147
:102E20002806909129062FBF08951F920F920FB682
:102E30000F9211242F933F938F939F93AF93BF9340
:102E40008091260690912706A0912806B091290628
:102E50003091250623E0230F2D3720F40196A11D84
:102E6000B11D05C026E8230F0296A11DB11D2093B8
:102E700025068093260690932706A0932806B093F4
:102E8000290680912A0690912B06A0912C06B091DC
:102E90002D060196A11DB11D80932A0690932B0645
:102EA000A0932C06B0932D06BF91AF919F918F9167
:102EB0003F912F910F900FBE0F901F9018951F926A
:102EC0000F920FB60F9211242F933F934F935F935E
:102ED0006F937F938F939F93AF93BF93EF93FF93E2
:102EE000E0910201F09103010995FF91EF91BF91EB
:102EF000AF919F918F917F916F915F914F913F9192
:102F00002F910F900FBE0F901F9018951F920F9248
:102F10000FB60F9211242F933F934F935F936F93AC
:102F20007F938F939F93AF93BF93EF93FF93E09122
:102F30000001F09101010995FF91EF91BF91AF91CF
:102F40009F918F917F916F915F914F913F912F91C1
:102F50000F900FBE0F901F9018951F920F920FB6F3
:102F60000F9211242F933F934F935F936F937F930F
:102F70008F939F93AF93BF93EF93FF93E0913C02A6
:102F8000F0913D02309709F451C0968DA685B78522
:102F9000858591FF04C09C91892329F447C09C91A9
:102FA000892309F043C0A389B4899C9185898095C0
:102FB00089238C93868997890197F1F7608D718DAC
:102FC000A685B785558538E020E0CB010197F1F75C
:102FD000822F90E095958795282F4C91452309F0F5
:102FE0002068315091F7868D81FD209580913B02BC
:102FF00090E001968F73992730913A02381749F083
:10300000A0913B02B0E0AB51BA4F2C9380933B02AE
:1030100003C0868D8160868F828D938D0197F1F735
:10302000A389B4899C918589892B8C93FF91EF9119
:10303000BF91AF919F918F917F916F915F914F91D0
:103040003F912F910F900FBE0F901F901895E09118
:103050003C02F0913D02E817F90769F4A389B489AD
:103060009C918589809589238C9310923D021092C2
:103070003C0281E0089580E008954F925F926F9244
:103080007F928F929F92AF92BF92CF92DF92EF92F8
:10309000FF920F931F93CF93DF93EC016A017B01A3
:1030A00028013901423051056105710510F480E0B5
:1030B00073C089859A85AB85BC850196A11DB11D1C
:1030C00084179507A607B70790F38B889C88AD886F
:1030D000BE888F89803129F4BB27AF2D9E2D8D2D81
:1030E00009C0DB01CA0147E0B695A795979587957A
:1030F0004A95D1F7880E991EAA1EBB1E8091040125
:1031000090910501A0910601B091070188169906DA
:10311000AA06BB0679F48F898031A1F4DD24EE2460
:10312000FF24C601880F991FFC01EF59FD4F518202
:10313000408219C040E0C501B4010E949705811189
:10314000EACFB5CFE894C7F8DD24EE24FF24C6010A
:10315000880F991F880F991FFC01EF59FD4F40827E
:103160005182628273828091E00581608093E005E4
:103170008A89823080F08D819E81AF81B885880EEA
:10318000991EAA1EBB1E8092E1059092E205A092B4
:10319000E305B092E40581E0DF91CF911F910F919B
:1031A000FF90EF90DF90CF90BF90AF909F908F9067
:1031B0007F906F905F904F9008958F929F92AF9203
:1031C000BF92CF92DF92EF92FF920F931F93CF9314
:1031D000DF93FC0181859285A385B4850196A11DAD
:1031E000B11D84179507A607B70710F480E05CC0EF
:1031F00083899489A589B689C789C03129F4852E28
:10320000962EA72EBB2409C04A015B01C7E0B694E5
:10321000A79497948794CA95D1F7E9016A017B0135
:103220008F01BC01CD01680D791D8A1D9B1D809009
:10323000040190900501A0900601B0900701681567
:1032400079058A059B0599F4F80187898031A9F4ED
:10325000B701A601552766277727440F551FFA01A6
:10326000EF59FD4F80819181A0E0B0E018C040E0AF
:103270000E9497058111E8CFB9CFB701A6014F771A
:10328000552766277727440F551F440F551FFA010E
:10329000EF59FD4F80819181A281B381BF708883F6
:1032A0009983AA83BB8381E0DF91CF911F910F9116
:1032B000FF90EF90DF90CF90BF90AF909F908F9056
:1032C00008954F925F926F927F928F929F92AF92EA
:1032D000BF92CF92DF92EF92FF926B017C01B42EEE
:1032E0009B01AC010E94A227882319F06BE272E0D7
:1032F00027C026013701E89477F82FEF3FEF4FE71B
:103300005FE7C301B2010E94A22781110DC02FEF18
:103310003FEF4FE75FE7C301B2010E94BB241816DD
:103320001CF46FE272E00CC02FEF3FEF4FE75FE459
:10333000C701B6010E949D27181694F463E372E05A
:1033400083E694E0FF90EF90DF90CF90BF90AF9036
:103350009F908F907F906F905F904F900C94C315CB
:103360002FEF3FEF4FE75FECC701B6010E94BB2490
:1033700087FDE4CF20E030E0A901C701B6010E943B
:10338000BB2487FF11C0E0916304F09164040190B5
:10339000F081E02D6DE283E694E009954C01F7FAA7
:1033A000F094F7F8F09402C0812C912CA12C60E0ED
:1033B00070E080E09FE3AB1441F020E030E040E2B9
:1033C00051E40E94B426A394F6CF9B01AC01C7013F
:1033D000B6010E9431262B013C010E942D276B0172
:1033E0007C010E94C0249B01AC01C301B2010E9478
:1033F00030262B013C014AE0C701B6010E94C212EF
:103400007C01E80CF91CBB2069F0E0916304F091A9
:1034100064040190F081E02D6EE283E694E009956A
:10342000E80EF91EDB2CDD2021F120E030E040E247
:1034300051E4C301B2010E9421252B013C010E94ED
:103440002D274B01A12CB12C4AE0C501B4010E94EB
:10345000C212E80EF91EC501B4010E94C0249B01EE
:10346000AC01C301B2010E9430262B013C01DA9469
:10347000DACFC701FF90EF90DF90CF90BF90AF9071
:103480009F908F907F906F905F904F9008958BE505
:1034900091E09093C2058093C10581EC95E00C9476
:1034A0002718CF93DF93CDB7DEB7C458D1090FB635
:1034B000F894DEBF0FBECDBF789484B5826084BD22
:1034C00084B5816084BD85B5826085BD85B5816028
:1034D00085BD80916E00816080936E0010928100A6
:1034E0008091810082608093810080918100816061
:1034F0008093810080918000816080938000809122
:10350000B10084608093B1008091B00081608093AD
:10351000B00080917A00846080937A0080917A0074
:10352000826080937A0080917A00816080937A0033
:1035300080917A00806880937A001092C100109286
:103540003E0210923F0210924002109241021092ED
:103550004F02109250021092510210925202109299
:103560005D0210925E0210925F0210926002109251
:103570005C0281E090E0A0E0B0E080935302909381
:103580005402A0935502B0935602E0917304F09157
:10359000740482E08083E0916F04F09170041082E3
:1035A000E0917104F09172048FEC808310927B049F
:1035B000E0917704F091780486E08083E0917504CF
:1035C000F0917604808180618083E0917504F091B0
:1035D0007604808188608083E0917504F0917604A0
:1035E000808180688083E0917504F0917604808109
:1035F0008F7D808389E080934D0580E469968FAF4D
:1036000069976A968FAF6A976B968FAF6B976C9638
:103610008FAF6C9740E064E0CE01885A9F4F0E94C4
:10362000E90D0E94AC0F69E871E083E694E00E9426
:10363000C31569961FAE69978DE36A968FAF6A9737
:1036400083E76B968FAF6B978DE66C968FAF6C9719
:103650001092DC051092DB051092DA051092D90564
:103660001092D8051092D7058DE991E09093DE0570
:103670008093DD059091CD05963108F057C02DEB74
:1036800030E03093D8052093D7052BE931E0309313
:10369000DA052093D9052CE231E03093DC05209344
:1036A000DB0520916800983050F031E09E3008F43E
:1036B00030E081E001C0880F3A95EAF701C084E06C
:1036C000822B80936800983038F09E3040F096311D
:1036D00048F020E030E008C02DE630E005C02BE6E1
:1036E00030E002C02CE630E03093D5052093D405BD
:1036F000983030F481E001C0880F9A95EAF70EC047
:10370000292F30E09E3018F42850310902C02E5085
:10371000310981E001C0880F2A95EAF78093D60528
:103720008091DD059091DE050197F1F78091DB0531
:103730009091DC05892B21F180913C0290913D0212
:1037400025E0813C9207E1F0009711F00E942718D4
:103750008091DF058E7F8093DF0510923B021092EF
:103760003A0281EC95E090933D0280933C02E09117
:10377000D405F091D50590818091D605892B808361
:1037800011E0C0904702D0904802E0904902F090CA
:103790004A0220E030E0A901C701B6010E94BB2423
:1037A000811180C040E064E0CE01885A9F4F0E94A2
:1037B000E90D80915C02882379F06A968FAD6A9753
:1037C000806880935B0241E061E08BE592E00E94BB
:1037D000E90D10925C020BC010935C0208C081ECF2
:1037E00095E00E9491140E94E40F811107C081ECC2
:1037F00095E00E947914892B91F751C0C0905E0525
:10380000D0905F05E0906005F090610580906605BE
:1038100090906705A0906805B09069053FEFC316CA
:1038200039ECD3063AE9E3063BE3F30659F0C70166
:10383000B6010E94C22420E034E244E759E40E9429
:10384000B42604C060E070E08AE794E46093470225
:10385000709348028093490290934A024FEFC41636
:1038600049ECD4064AE9E4064BE3F40659F0C501F5
:10387000B4010E94C22420E034E244E759E40E94EB
:10388000B42604C060E070E08AE794E460934302E9
:10389000709344028093450290934602A8CF0E9401
:1038A000AC0F6FCF20E030E0A9016091430270912E
:1038B000440280914502909146020E94BB248823D5
:1038C00009F470CF26E0B701A601CE01CB960E9485
:1038D00076154091430250914402609145027091E7
:1038E000460226E0CE014E960E9476156DE971E003
:1038F00083E694E00E94C3151A8219821C821B82FF
:103900001E821D82BE01655C7F4FCE0101960E9422
:10391000471565EA71E0CE0101960E941B15BE01B4
:10392000625E7F4F0E943415BC0183E694E00E94E2
:10393000D815CE0101960E94711567EA71E083E601
:1039400094E00E94C31580913105882321F08CE218
:1039500095E00E941B0A10920D0510920B05109223
:103960000805109207058AE0809306050E94091752
:103970008B0161E0809106050E94A81661E08091AC
:1039800006050E947816FFB6F894809142028111D4
:1039900027C0E0E0F2E08491E4E1F2E09491E82FC6
:1039A000F0E0EE0FFF1FEC53FE4FA591B491EC91A8
:1039B000E92321F461E08AE00E94781661E08AE060
:1039C0000E94A8168CB580618CBD8CB580648CBDBE
:1039D00061E08DE00E94A81661E08BE00E94A816CD
:1039E000809142028F5F80934202FFBE82E5809306
:1039F00000051092010580910005909101050E943B
:103A0000E2032AE0F22E8FEF0E94A303FA94F11052
:103A1000FACF82E095E00E94E50320E030E0A901C2
:103A200060E082E095E00E94FB03F82E80930C0595
:103A300081E0F81649F00E940917601B710B613D87
:103A4000774058F381E056C02AEA31E040E050E088
:103A500068E082E095E00E94FB0382FF03C0F092E1
:103A60000D0510C094E0F92E0E94AA0380930C0566
:103A7000FA94F110F9CF8A3A11F082E03BC082E06B
:103A800080930D0580910D05823021F0C12CD12C41
:103A9000760105C0C12CD12CE12C80E4F82E20E069
:103AA00030E0A90167E382E095E00E94FB03A701F3
:103AB000960169E282E095E00E94FB0380930C0589
:103AC000882349F00E940917601B710B613D774004
:103AD00030F388E00FC080910D05823001F520E0C1
:103AE00030E0A9016AE382E095E00E94FB038823AD
:103AF00041F086E08093070582E095E00E949803FC
:103B000028C00E94AA03807C803C19F483E0809343
:103B10000D050E94AA030E94AA030E94AA0382E044
:103B200095E00E94980380E58093000510920105BE
:103B300081E00E947D0E882339F08CE295E00E949E
:103B4000290E882331F01FC080E00E947D0E811174
:103B5000F4CF8FEB91E00E94D60D69961FAE699766
:103B60008DE66A968FAF6A978EE56B968FAF6B97EF
:103B70006C961FAE6C9740E064E0CE01885A9F4F70
:103B80000E94E90DFFCF8BED91E00E94D60D60E021
:103B900082E00E94A81689E792E090930101809349
:103BA0000001809169008C7F826080936900E89AAF
:103BB00061E083E00E94A81661E083E00E9478162D
:103BC0000E9409176093570270935802809359021C
:103BD00090935A02CE014E960E947115CE01CB965B
:103BE0000E9471150E9409176B017C016BE971E05D
:103BF00083E694E00E94C31560915D0270915E02BD
:103C000080915F02909160020E949D260E9426276B
:103C10008B01CB010E94741280915C028823E1F039
:103C2000C80164E670E00E94B727CB016AE070E04B
:103C30000E94B7278F70E82FF0E0EF5DFE4F808184
:103C4000806880935B0241E061E08BE592E00E9436
:103C5000E90D10925C0203C081E080935C020E9437
:103C6000AC0F8091570290915802A0915902B091E7
:103C70005A02A7019601281B390B4A0B5B0BDA018C
:103C8000C901813A9C48A105B10508F45FC2C09200
:103C90005702D0925802E0925902F0925A022091B3
:103CA0005302309154024091550250915602609156
:103CB0003E0270913F0280914002909141020E9429
:103CC000A7270E94C02460934F02709350028093F4
:103CD00051029093520220E030E047E153E40E9409
:103CE000B42660934B0270934C0280934D029093E4
:103CF0004E0220E030E048EC52E40E94212560931F
:103D00005D0270935E0280935F02909360026DEE9D
:103D100071E083E694E00E94C31560914F027091B8
:103D20005002809151029091520242E00E9461192A
:103D300064EF71E083E694E00E94C31560914B024A
:103D400070914C0280914D0290914E0242E00E948F
:103D5000611987EF91E00E94D60D60915D0270912C
:103D60005E0280915F029091600242E00E946119C0
:103D70008EEF91E00E94D60D60915D0270915E021F
:103D800080915F02909160020E949D260E942627EA
:103D9000CB010E94741240914B0250914C026091F1
:103DA0004D0270914E0222E0CE0181589F4F0E9439
:103DB000761581EC95E00E947914892B09F459C09D
:103DC00081EC95E00E9491140E94E40F882389F30E
:103DD000C0905E05D0905F05E0906005F0906105B1
:103DE0008090660590906705A0906805B090690581
:103DF0004FEFC41649ECD4064AE9E4064BE3F40657
:103E000059F0C701B6010E94C22420E034E244E721
:103E100059E40E94B42604C060E070E08AE794E4AC
:103E200060934702709348028093490290934A023C
:103E30005FEFC51659ECD5065AE9E5065BE3F506D2
:103E400059F0C501B4010E94C22420E034E244E7E5
:103E500059E40E94B42604C060E070E08AE794E46C
:103E6000609343027093440280934502909346020C
:103E7000A0CF409147025091480260914902709151
:103E80004A0226E0CE0187589F4F0E947615409146
:103E9000430250914402609145027091460226E02F
:103EA000CE018D589F4F0E9476151A8219821C826E
:103EB0001B821E821D82BE0167587F4FCE01019674
:103EC0000E94471563E072E0CE0101960E941B1527
:103ED000BE016D587F4F0E94341563E072E00E946E
:103EE0001B15BE0161587F4F0E943415BC01CE01E5
:103EF00081589F4F0E944715CE0101960E9471156F
:103F00001C821B820FE411E01A8309831E82CE01FA
:103F100001960E94290E8B819C819EAF8DAF1CAFB4
:103F20000BAF8D818FAF8E8121968FAF21974F81FF
:103F3000588569857A8525964CAF5DAF6EAF7FAFAA
:103F400025974B855C856D857E8529964CAF5DAF49
:103F50006EAF7FAF29974F85588969897A892D96E9
:103F60004CAF5DAF6EAF7FAF2D979B892E969FAF05
:103F70002E974C895D896E897F8962964CAF5DAFC3
:103F80006EAF7FAF6297488D598D6A8D7B8D669637
:103F90004CAF5DAF6EAF7FAF66972C8D3D8D689651
:103FA0003FAF2EAF689719A218A21F8F0E8F1BA2CA
:103FB00081111CC06C961FAE1EAE6C9788EE93E00C
:103FC000A0E0B0E0A0968CAF9DAFAEAFBFAFA09722
:103FD00083E191E06A969FAF8EAF6A97E3961FAE3A
:103FE0001EAEE397A5961FAEA5975AC027E143E101
:103FF00052E0BE01655C7F4FCE014E960E94640880
:104000008823C1F2CE01CB960E941B0A49A95AA966
:104010006BA97CA9CE014E960E94FC0288A199A1B1
:104020009C838B831A8309838AA18D838BA18E83C2
:104030008CA19DA1AEA1BFA18F839887A987BA87C4
:1040400088A599A5AAA5BBA58B879C87AD87BE87A8
:104050008CA59DA5AEA5BFA58F87988BA98BBA8B84
:1040600088A98B8B89A99AA9ABA9BCA98C8B9D8B9C
:10407000AE8BBF8B8DA99EA9AFA9B8AD888F998F44
:10408000AA8FBB8F89AD9AAD9D8F8C8F43E152E093
:10409000BE016F5F7F4FCE01885A9F4F0E94EC0B8D
:1040A000E396EEADFFADE397309729F18581882344
:1040B00011F1BE0161587F4FCE01885A9F4F0E9477
:1040C000D815E3968EAD9FADE397009761F00E94FF
:1040D0001B0AE3968EAD9FADE3970E94A428E3965A
:1040E0001FAE1EAEE397BE0161587F4F83E694E09A
:1040F0000E94D81504C085E092E00E94D60D10926F
:104100003E0210923F021092400210924102109221
:104110004702109248021092490210924A021092ED
:104120004302109244021092450210924602CE01C0
:104130008D589F4F0E947115CE0187589F4F0E9446
:104140007115CE0181589F4F0E9471150E94011474
:1041500049CD109266041092650488EE93E0A0E0C9
:10416000B0E08093670490936804A0936904B093CF
:104170006A042DE331E0309364042093630425EC5A
:1041800030E03093700420936F0424EC30E03093DF
:1041900072042093710420EC30E030937404209377
:1041A000730421EC30E0309376042093750422EC04
:1041B00030E0309378042093770426EC30E030939D
:1041C0007A042093790410927C0410927D0410925A
:1041D0007E0410927F0420E52093000510920105D3
:1041E000109207051092080510920B0510920D050C
:1041F00042E050E060E070E040930E0550930F0500
:1042000060931005709311051092250510922F05EB
:1042100010922E052FE431E030932D0520932C05CC
:10422000109231051092C4051092C3058093C50504
:104230009093C605A093C705B093C8058BE591E0A0
:104240009093C2058093C1051092D8051092D705AE
:104250001092DA051092D9051092DC051092DB0558
:104260001092DE051092DD056091DF056E7F6D7F97
:104270006093DF056695617081E0682785E00E94A4
:10428000781661E085E00E94A816EFE0F2E0E49184
:10429000E093D105EBEFF1E0E491F0E0EE0FFF1FCA
:1042A000EE51FE4F859194919093D3058093D20562
:1042B00060E084E00E94A8168091DF0581FD04C0C3
:1042C00061E084E00E94781684E08093CD05EEE002
:1042D000F2E0E491E093CE05EAEFF1E0E491F0E062
:1042E000EE0FFF1FE451FE4F859194919093D005FE
:1042F0008093CF054FEF5FEFBA0140934E05509387
:104300004F05609350057093510510925605109219
:10431000570510925805109259058FEF99ECAAE9AC
:10432000BBE380935E0590935F05A0936005B09317
:1043300061058093660590936705A0936805B09327
:10434000690580936E0590936F05A0937005B093F7
:1043500071058093760590937705A0937805B093C7
:10436000790580937E0590937F05A0938005B09397
:104370008105409386055093870560938805709367
:1043800089058FEF90E090938F0580938E05409381
:10439000920550939305609394057093950540930F
:1043A0009A0550939B0560939C0570939D05109210
:1043B000A2051092A30582E08093B3051092B40584
:1043C0001092B5051092B6051092B7051092B80577
:1043D0001092B9051092BA051092BC051092BB0557
:1043E0001092BE051092BD051092A40589E080933D
:1043F0004B0588E080934C0560E089E00E94A81698
:1044000060E080914C050E94A81660E080914B0509
:104410000E94781660E080914C050C947816EF921B
:104420000F931F93CF93DF93E80147FD02C034E061
:1044300001C034E1E42F440FFF0BF7FF03C0F195F7
:10444000E195F109E32E022F2E2FAE010E94552295
:10445000CE01DF91CF911F910F91EF900895FC0154
:1044600088279927E89421912032E9F3293010F028
:104470002E30C8F32B3241F02D3239F4689404C049
:104480000E944D22820F911D219120532A30C0F3AA
:104490001EF4909581959F4F08957AE0979F902DF7
:1044A000879F802D910D112408954F925F926F92F6
:1044B0007F929F92AF92BF92CF92DF92EF92FF9244
:1044C0000F931F93CF93DF93CDB7DEB729970FB626
:1044D000F894DEBF0FBECDBF6A01122FB02E2BE3C2
:1044E000201720F0FF24F394F00E02C0BCE3FB2E53
:1044F0000F2D27E0AE014F5F5F4F0E94E323AC0119
:104500008981982F9970913031F0E1FC06C0E0FE6E
:1045100006C090E205C09DE203C09BE201C090E0AE
:10452000EE2DE07183FF3CC0911102C083E001C019
:1045300084E0811718F4212F281B01C020E0E1112D
:104540000BC0F601822F30E2882319F0319381509D
:10455000FBCFC20ED11C20E0992329F0D6019C93F9
:10456000F60131966F01C6010396E2FE0AC03EE4F1
:10457000D6013C9341E411964C93119712963C93CB
:1045800006C03EE6F601308341E641833283FC01FA
:10459000322F40E2332309F442C041933150FACF25
:1045A00082FF44C0911102C083E001C084E0811702
:1045B00018F4212F281B01C020E0E1110BC0F601E7
:1045C000822F30E2882319F031938150FBCFC20E45
:1045D000D11C20E0992329F0D6019C93F601319655
:1045E0006F01C6010396E2FE0BC039E4D6013C938D
:1045F0003EE411963C93119736E412963C9307C023
:1046000039E6F60130833EE6318336E63283FC013B
:10461000322F40E2332319F041933150FBCFFC019C
:10462000E20FF11D10828EEF9FEFB7C0F1E0911104
:1046300001C0F0E06F2F70E01416150624F49A0103
:104640002F5F3F4F02C021E030E0260F371FBB2015
:1046500029F06B2D70E06F5F7F4F02C060E070E06B
:10466000260F371F612F70E0261737071CF4121B27
:10467000212F01C020E03E2D387159F4D601322F90
:1046800060E2332319F06D933150FBCFC20ED11C81
:1046900020E0FF2331F0D6019C93B6016F5F7F4F7E
:1046A0006B01E1110BC0F601922F30E3992319F051
:1046B00031939150FBCFC20ED11C20E09F2D940F5F
:1046C0003A81782F7071A72E84FF03C0313309F42B
:1046D0009150191624F4993018F098E001C091E037
:1046E000E42F852F57FF02C0E0E080E06E2F782F87
:1046F000E0E0F0E0AEE29A2E3A01691A71082A0170
:10470000461A570A0B2D10E01195019511096F3FBC
:104710008FEF780729F4D6019C92C60101966C01AF
:104720004617570784F0661677066CF47F01E40C91
:10473000F51CA1E0B0E0AC0FBD1FEA0EFB1ED701D7
:104740001196BC9002C090E3B92E61507109319668
:10475000C60101967C016017710724F0D601BC9256
:104760006C01D5CF6417750741F4363320F4353327
:1047700021F4A11002C081E3B82EF601B082F70146
:10478000822F90E2882319F091938150FBCFF7019B
:10479000E20FF11D108280E090E029960FB6F894A8
:1047A000DEBF0FBECDBFDF91CF911F910F91FF9064
:1047B000EF90DF90CF90BF90AF909F907F906F90E1
:1047C0005F904F900895283008F027E03327DA01F2
:1047D000990F311D87FD916000966105710539F4CF
:1047E00032602E5F3D9330E32A95E1F708959F3FB5
:1047F00030F080387105610509F03C5F3C5F3D9306
:10480000913008F08068911DDF93CF931F930F9331
:10481000FF92EF92192F987F9695E92F969596958E
:10482000E90FFF27EC5EFE4F99273327EE24FF2484
:10483000A701E70105900894079428F4360FE71EB6
:10484000F81E491F511D660F771F881F991F069478
:10485000A1F70590079428F4E70EF81E491F561F8C
:10486000C11D770F881F991F661F0694A1F7059039
:10487000079428F4F80E491F561FC71FD11D880F33
:10488000991F661F771F0694A1F70590079420F4DF
:10489000490F561FC71FD81F990F661F771F881F04
:1048A0000694A9F784911095177041F0D695C79595
:1048B00057954795F794E7941A95C1F7EAEBF0E01E
:1048C00068941590159135916591959105907FE2C9
:1048D0007395E118F10A430B560BC90BD009C0F7C9
:1048E000E10CF11E431F561FC91FD01D7EF470330B
:1048F00011F48A95E6CFE894015030F0080F0AF4DD
:104900000027021708F4202F2395022F7A3328F06E
:1049100079E37D932A95E9F710C07D932A9589F66E
:10492000069497956795379517951794E118F10AAE
:10493000430B560BC90BD00998F023957E917395C4
:104940007A3308F070E37C932013B8F77E9170619E
:104950007D9330F0839571E37D9370E32A95E1F7C1
:104960001124EF90FF900F911F91CF91DF91992724
:1049700087FD909508950E94FD2408F481E0089534
:10498000E89409C097FB3EF49095809570956195E9
:104990007F4F8F4F9F4F9923A9F0F92F96E9BB279F
:1049A0009395F695879577956795B795F111F8CF1B
:1049B000FAF4BB0F11F460FF1BC06F5F7F4F8F4F86
:1049C0009F4F16C0882311F096E911C0772321F07C
:1049D0009EE8872F762F05C0662371F096E8862F14
:1049E00070E060E02AF09A95660F771F881FDAF76B
:1049F000880F9695879597F90895990F0008550F98
:104A0000AA0BE0E8FEEF16161706E807F907C0F054
:104A100012161306E407F50798F0621B730B840B5C
:104A2000950B39F40A2661F0232B242B252B21F436
:104A300008950A2609F4A140A6958FEF811D811DD6
:104A400008950E9434250C94A5250E94972538F0DE
:104A50000E949E2520F0952311F00C948E250C9435
:104A6000942511240C94D9250E94B62570F3959FA6
:104A7000C1F3950F50E0551F629FF001729FBB2755
:104A8000F00DB11D639FAA27F00DB11DAA1F649FF1
:104A90006627B00DA11D661F829F2227B00DA11DA4
:104AA000621F739FB00DA11D621F839FA00D611D2A
:104AB000221F749F3327A00D611D231F849F600D4B
:104AC000211D822F762F6A2F11249F5750409AF074
:104AD000F1F088234AF0EE0FFF1FBB1F661F771F00
:104AE000881F91505040A9F79E3F510580F00C94CB
:104AF0008E250C94D9255F3FE4F3983ED4F3869538
:104B000077956795B795F795E7959F5FC1F7FE2B6A
:104B1000880F911D9695879597F9089597F99F6746
:104B200080E870E060E008959FEF80EC0895002435
:104B30000A941616170618060906089500240A9402
:104B400012161306140605060895092E0394000C88
:104B500011F4882352F0BB0F40F4BF2B11F460FF17
:104B600004C06F5F7F4F8F4F9F4F089557FD905840
:104B7000440F551F59F05F3F71F04795880F97FB21
:104B8000991F61F09F3F79F08795089512161306DB
:104B90001406551FF2CF4695F1DF08C0161617060A
:104BA0001806991FF1CF869571056105089408953F
:104BB000E894BB2766277727CB0197F908950E94D1
:104BC0002126A59F900DB49F900DA49F800D911D4F
:104BD000112408952F923F924F925F926F927F928D
:104BE0008F929F92AF92BF92CF92DF92EF92FF92FD
:104BF0000F931F93CF93DF93CDB7DEB7CA1BDB0BA9
:104C00000FB6F894DEBF0FBECDBF09942A8839884D
:104C100048885F846E847D848C849B84AA84B98454
:104C2000C884DF80EE80FD800C811B81AA81B98160
:104C3000CE0FD11D0FB6F894DEBF0FBECDBFED0174
:104C40000895A29FB001B39FC001A39F700D811D65
:104C50001124911DB29F700D811D1124911D089585
:104C60005058BB27AA270E9448260C94A5250E94CD
:104C7000972538F00E949E2520F039F49F3F19F4C3
:104C800026F40C9494250EF4E095E7FB0C948E2505
:104C9000E92F0E94B62558F3BA17620773078407F5
:104CA000950720F079F4A6F50C94D8250EF4E0953C
:104CB0000B2EBA2FA02D0B01B90190010C01CA01D6
:104CC000A0011124FF27591B99F0593F50F4503E81
:104CD00068F11A16F040A22F232F342F4427585F73
:104CE000F3CF469537952795A795F0405395C9F78B
:104CF0007EF41F16BA0B620B730B840BBAF0915043
:104D0000A1F0FF0FBB1F661F771F881FC2F70EC0E1
:104D1000BA0F621F731F841F48F4879577956795B4
:104D2000B795F7959E3F08F0B0CF9395880F08F0A0
:104D30009927EE0F9795879508950E94852790F003
:104D40009F3748F4911116F40C94D92560E070E077
:104D500080E89FE3089526F01B16611D711D811DDB
:104D60000C945C270C9477270E94C8260C94A525E8
:104D70000E949E2558F00E94972540F029F45F3F3D
:104D800029F00C948E2551110C94D9250C9494255E
:104D90000E94B62568F39923B1F3552391F3951B2F
:104DA000550BBB27AA2762177307840738F09F5F4C
:104DB0005F4F220F331F441FAA1FA9F335D00E2EB9
:104DC0003AF0E0E832D091505040E695001CCAF726
:104DD0002BD0FE2F29D0660F771F881FBB1F2617E9
:104DE00037074807AB07B0E809F0BB0B802DBF01C0
:104DF000FF2793585F4F3AF09E3F510578F00C948F
:104E00008E250C94D9255F3FE4F3983ED4F3869524
:104E100077956795B795F7959F5FC9F7880F911DAF
:104E20009695879597F90895E1E0660F771F881F9B
:104E3000BB1F621773078407BA0720F0621B730B4E
:104E4000840BBA0BEE1F88F7E09508950E942D277A
:104E50006894B1110C94D92508950E94BE2588F05C
:104E60009F5798F0B92F9927B751B0F0E1F0660F2E
:104E7000771F881F991F1AF0BA95C9F714C0B1306F
:104E800091F00E94D825B1E008950C94D825672FA1
:104E9000782F8827B85F39F0B93FCCF3869577959E
:104EA0006795B395D9F73EF4909580957095619587
:104EB0007F4F8F4F9F4F0895882371F4772321F000
:104EC0009850872B762F07C0662311F499270DC0C1
:104ED0009051862B70E060E02AF09A95660F771F5C
:104EE000881FDAF7880F9695879597F908959F3F61
:104EF00031F0915020F4879577956795B795880F95
:104F0000911D9695879597F908950E94BE25A0F06A
:104F1000BEE7B91788F4BB279F3860F41616B11D99
:104F2000672F782F8827985FF7CF869577956795B5
:104F3000B11D93959639C8F308950E94FD2408F495
:104F40008FEF08950E94FD24880B990B0895DB01D3
:104F50008F939F930E94DF25BF91AF91A29F800DF9
:104F6000911DA39F900DB29F900D1124089597FB62
:104F7000072E16F4009407D077FD09D00E94FB2776
:104F800007FC05D03EF4909581959F4F089570954C
:104F900061957F4F0895A1E21A2EAA1BBB1BFD014C
:104FA0000DC0AA1FBB1FEE1FFF1FA217B307E40708
:104FB000F50720F0A21BB30BE40BF50B661F771F60
:104FC000881F991F1A9469F7609570958095909540
:104FD0009B01AC01BD01CF010895EE0FFF1F0590AD
:104FE000F491E02D0994B7FF0C94DF250E94DF2592
:104FF000821B930B0895AA1BBB1B51E107C0AA1F7C
:10500000BB1FA617B70710F0A61BB70B881F991F69
:105010005A95A9F780959095BC01CD010895CF933D
:10502000DF938230910510F482E090E0E091300649
:10503000F091310620E030E0C0E0D0E0309711F18F
:105040004081518148175907C0F04817590761F44A
:1050500082819381209719F09B838A832BC0909340
:1050600031068093300626C02115310519F042170C
:10507000530718F49A01BE01DF01EF010280F381AA
:10508000E02DDCCF2115310509F1281B390B243027
:10509000310590F412968D919C91139761157105CD
:1050A00021F0FB019383828304C0909331068093A7
:1050B0003006FD01329644C0FD01E20FF31F8193DB
:1050C0009193225031092D933C933AC020912E06A2
:1050D00030912F06232B41F420910A0130910B01CE
:1050E00030932F0620932E0620910801309109015C
:1050F0002115310541F42DB73EB740910C01509177
:105100000D01241B350BE0912E06F0912F06E217BE
:10511000F307A0F42E1B3F0B2817390778F0AC01DA
:105120004E5F5F4F2417350748F04E0F5F1F5093B7
:105130002F0640932E068193919302C0E0E0F0E0A9
:10514000CF01DF91CF9108950F931F93CF93DF93FA
:10515000009709F48CC0FC013297138212820091EF
:105160003006109131060115110581F4208131813D
:10517000820F931F20912E0630912F062817390792
:1051800079F5F0932F06E0932E0671C0D80140E028
:1051900050E0AE17BF0750F412962D913C91139733
:1051A000AD012115310509F1D901F3CF9D01DA01D6
:1051B0003383228360817181860F971F8217930743
:1051C00069F4EC0128813981260F371F2E5F3F4F8C
:1051D000318320838A819B8193838283452B29F4A9
:1051E000F0933106E093300642C01396FC93EE93A1
:1051F0001297ED01499159919E01240F351FE21735
:10520000F30771F480819181840F951F02961196A6
:105210009C938E938281938113969C938E93129785
:10522000E0E0F0E0D80112968D919C9113970097E1
:1052300019F0F8018C01F6CF8D919C9198012E5FA9
:105240003F4F820F931F20912E0630912F06281773
:10525000390769F4309729F410923106109230061C
:1052600002C01382128210932F0600932E06DF9144
:10527000CF911F910F910895A0E0B0E0E2E4F9E230
:105280000C94EE25EC01009721F4CB010E940F282D
:10529000B8C0FC01E60FF71F9C0122503109E2174C
:1052A000F30708F4ACC0D9010D911C9111970617B2
:1052B0001707B0F00530110508F49FC0C801049726
:1052C0008617970708F499C002501109061B170B9F
:1052D000019311936D937C93CF010E94A4288DC0FC
:1052E0005B01A01AB10A4C01800E911EA0913006FC
:1052F000B091310640E050E0E12CF12C109709F418
:105300004AC0A815B905D1F56D907C90119763013D
:1053100082E0C80ED11CCA14DB0480F1A3014A1933
:105320005B096A0182E0C80ED11C1296BC901297EC
:105330001396AC91B5E0CB16D10440F0B282A383B2
:1053400051834083D9016D937C930AC00E5F1F4F38
:10535000C301800F911FF90191838083EB2DFA2FF8
:10536000E114F10431F0D7011396FC93EE931297F8
:1053700044C0F0933106E09330063FC08D919C917C
:1053800011974817590708F4AC017D0112960D904A
:10539000BC91A02DB3CF80912E0690912F06881539
:1053A0009905E1F446175707C8F4809108019091D8
:1053B0000901009741F48DB79EB740910C015091BF
:1053C0000D01841B950BE817F907C8F4F0932F061D
:1053D000E0932E06F901718360830FC0CB010E9418
:1053E0000F287C01009759F0A801BE010E94182ADD
:1053F000CE010E94A428C70104C0CE0102C080E0F3
:1054000090E0CDB7DEB7EEE00C940A2681E090E0A4
:10541000F8940C94372AFB01DC0104C08D910190B3
:10542000801921F441505040C8F7881B990B08950A
:10543000FB01DC0102C001900D9241505040D8F7B1
:105440000895FB01DC0101900D920020E1F7089521
:10545000FB01DC014150504048F001900D920020CA
:10546000C9F701C01D9241505040E0F7089511E086
:10547000C0E1D1E004C0FE010E94ED272196C131B8
:08548000D107C9F7F894FFCF32
:105488000B140B14FFFFFFFF000032068000000022
:105498000000005C01D00B7301270A3B01EA06F407
:1054A800063F065B4F666D7D077F6F777C395E79B7
:1054B8007101000A006400E8030000000098130569
:1054C800133013DF1361133F13531300000000BFA1
:1054D8000B051373017201000000002514051373F6
:1054E800012414791491140C1400000000B214055E
:1054F8001373017201B214B214B21400000000B2A6
:10550800140513730172012B00496E697469616C8B
:10551800697A696E67204750532E2E2E0072656196
:1055280064793A20003B00496E697469616C697A54
:10553800696E6720534420636172642E2E2E0043E7
:10554800617264206661696C65642C206F72206EDC
:105558006F742070726573656E7400636172642085
:10556800696E697469616C697A65642E0063706D2F
:10557800203D20000D0A00206D53762F6800206D15
:105588005268002C006572726F72206F70656E69C8
:105598006E6720646174616C6F672E74787400475D
:1055A80050524D43004750474741006E616E0069B5
:0855B8006E66006F76660000CC
:00000001FF
